{
  "contractName": "LandNFT",
  "abi": [
    {
      "inputs": [],
      "stateMutability": "nonpayable",
      "type": "constructor"
    },
    {
      "anonymous": false,
      "inputs": [
        {
          "indexed": true,
          "internalType": "address",
          "name": "owner",
          "type": "address"
        },
        {
          "indexed": true,
          "internalType": "address",
          "name": "approved",
          "type": "address"
        },
        {
          "indexed": true,
          "internalType": "uint256",
          "name": "tokenId",
          "type": "uint256"
        }
      ],
      "name": "Approval",
      "type": "event"
    },
    {
      "anonymous": false,
      "inputs": [
        {
          "indexed": true,
          "internalType": "address",
          "name": "owner",
          "type": "address"
        },
        {
          "indexed": true,
          "internalType": "address",
          "name": "operator",
          "type": "address"
        },
        {
          "indexed": false,
          "internalType": "bool",
          "name": "approved",
          "type": "bool"
        }
      ],
      "name": "ApprovalForAll",
      "type": "event"
    },
    {
      "anonymous": false,
      "inputs": [
        {
          "indexed": true,
          "internalType": "address",
          "name": "previousOwner",
          "type": "address"
        },
        {
          "indexed": true,
          "internalType": "address",
          "name": "newOwner",
          "type": "address"
        }
      ],
      "name": "OwnershipTransferred",
      "type": "event"
    },
    {
      "anonymous": false,
      "inputs": [
        {
          "indexed": true,
          "internalType": "address",
          "name": "from",
          "type": "address"
        },
        {
          "indexed": true,
          "internalType": "address",
          "name": "to",
          "type": "address"
        },
        {
          "indexed": true,
          "internalType": "uint256",
          "name": "tokenId",
          "type": "uint256"
        }
      ],
      "name": "Transfer",
      "type": "event"
    },
    {
      "inputs": [
        {
          "internalType": "address",
          "name": "to",
          "type": "address"
        },
        {
          "internalType": "uint256",
          "name": "tokenId",
          "type": "uint256"
        }
      ],
      "name": "approve",
      "outputs": [],
      "stateMutability": "nonpayable",
      "type": "function"
    },
    {
      "inputs": [
        {
          "internalType": "address",
          "name": "owner",
          "type": "address"
        }
      ],
      "name": "balanceOf",
      "outputs": [
        {
          "internalType": "uint256",
          "name": "",
          "type": "uint256"
        }
      ],
      "stateMutability": "view",
      "type": "function",
      "constant": true
    },
    {
      "inputs": [
        {
          "internalType": "uint256",
          "name": "tokenId",
          "type": "uint256"
        }
      ],
      "name": "burn",
      "outputs": [],
      "stateMutability": "nonpayable",
      "type": "function"
    },
    {
      "inputs": [
        {
          "internalType": "uint256",
          "name": "tokenId",
          "type": "uint256"
        }
      ],
      "name": "getApproved",
      "outputs": [
        {
          "internalType": "address",
          "name": "",
          "type": "address"
        }
      ],
      "stateMutability": "view",
      "type": "function",
      "constant": true
    },
    {
      "inputs": [
        {
          "internalType": "address",
          "name": "owner",
          "type": "address"
        },
        {
          "internalType": "address",
          "name": "operator",
          "type": "address"
        }
      ],
      "name": "isApprovedForAll",
      "outputs": [
        {
          "internalType": "bool",
          "name": "",
          "type": "bool"
        }
      ],
      "stateMutability": "view",
      "type": "function",
      "constant": true
    },
    {
      "inputs": [],
      "name": "name",
      "outputs": [
        {
          "internalType": "string",
          "name": "",
          "type": "string"
        }
      ],
      "stateMutability": "view",
      "type": "function",
      "constant": true
    },
    {
      "inputs": [],
      "name": "owner",
      "outputs": [
        {
          "internalType": "address",
          "name": "",
          "type": "address"
        }
      ],
      "stateMutability": "view",
      "type": "function",
      "constant": true
    },
    {
      "inputs": [
        {
          "internalType": "uint256",
          "name": "tokenId",
          "type": "uint256"
        }
      ],
      "name": "ownerOf",
      "outputs": [
        {
          "internalType": "address",
          "name": "",
          "type": "address"
        }
      ],
      "stateMutability": "view",
      "type": "function",
      "constant": true
    },
    {
      "inputs": [],
      "name": "renounceOwnership",
      "outputs": [],
      "stateMutability": "nonpayable",
      "type": "function"
    },
    {
      "inputs": [
        {
          "internalType": "address",
          "name": "from",
          "type": "address"
        },
        {
          "internalType": "address",
          "name": "to",
          "type": "address"
        },
        {
          "internalType": "uint256",
          "name": "tokenId",
          "type": "uint256"
        }
      ],
      "name": "safeTransferFrom",
      "outputs": [],
      "stateMutability": "nonpayable",
      "type": "function"
    },
    {
      "inputs": [
        {
          "internalType": "address",
          "name": "from",
          "type": "address"
        },
        {
          "internalType": "address",
          "name": "to",
          "type": "address"
        },
        {
          "internalType": "uint256",
          "name": "tokenId",
          "type": "uint256"
        },
        {
          "internalType": "bytes",
          "name": "data",
          "type": "bytes"
        }
      ],
      "name": "safeTransferFrom",
      "outputs": [],
      "stateMutability": "nonpayable",
      "type": "function"
    },
    {
      "inputs": [
        {
          "internalType": "address",
          "name": "operator",
          "type": "address"
        },
        {
          "internalType": "bool",
          "name": "approved",
          "type": "bool"
        }
      ],
      "name": "setApprovalForAll",
      "outputs": [],
      "stateMutability": "nonpayable",
      "type": "function"
    },
    {
      "inputs": [
        {
          "internalType": "bytes4",
          "name": "interfaceId",
          "type": "bytes4"
        }
      ],
      "name": "supportsInterface",
      "outputs": [
        {
          "internalType": "bool",
          "name": "",
          "type": "bool"
        }
      ],
      "stateMutability": "view",
      "type": "function",
      "constant": true
    },
    {
      "inputs": [],
      "name": "symbol",
      "outputs": [
        {
          "internalType": "string",
          "name": "",
          "type": "string"
        }
      ],
      "stateMutability": "view",
      "type": "function",
      "constant": true
    },
    {
      "inputs": [
        {
          "internalType": "uint256",
          "name": "tokenId",
          "type": "uint256"
        }
      ],
      "name": "tokenURI",
      "outputs": [
        {
          "internalType": "string",
          "name": "",
          "type": "string"
        }
      ],
      "stateMutability": "view",
      "type": "function",
      "constant": true
    },
    {
      "inputs": [
        {
          "internalType": "address",
          "name": "from",
          "type": "address"
        },
        {
          "internalType": "address",
          "name": "to",
          "type": "address"
        },
        {
          "internalType": "uint256",
          "name": "tokenId",
          "type": "uint256"
        }
      ],
      "name": "transferFrom",
      "outputs": [],
      "stateMutability": "nonpayable",
      "type": "function"
    },
    {
      "inputs": [
        {
          "internalType": "address",
          "name": "newOwner",
          "type": "address"
        }
      ],
      "name": "transferOwnership",
      "outputs": [],
      "stateMutability": "nonpayable",
      "type": "function"
    },
    {
      "inputs": [
        {
          "internalType": "address",
          "name": "to",
          "type": "address"
        },
        {
          "internalType": "string",
          "name": "_id",
          "type": "string"
        }
      ],
      "name": "safeMint",
      "outputs": [],
      "stateMutability": "nonpayable",
      "type": "function"
    },
    {
      "inputs": [
        {
          "internalType": "uint256",
          "name": "_id",
          "type": "uint256"
        }
      ],
      "name": "landDetails",
      "outputs": [
        {
          "components": [
            {
              "internalType": "uint256",
              "name": "id",
              "type": "uint256"
            },
            {
              "internalType": "address",
              "name": "owner",
              "type": "address"
            },
            {
              "internalType": "string",
              "name": "mongoId",
              "type": "string"
            }
          ],
          "internalType": "struct LandNFT.landNFT",
          "name": "",
          "type": "tuple"
        }
      ],
      "stateMutability": "view",
      "type": "function",
      "constant": true
    },
    {
      "inputs": [
        {
          "internalType": "address",
          "name": "_addr",
          "type": "address"
        }
      ],
      "name": "balOf",
      "outputs": [
        {
          "internalType": "uint256",
          "name": "",
          "type": "uint256"
        }
      ],
      "stateMutability": "view",
      "type": "function",
      "constant": true
    },
    {
      "inputs": [
        {
          "internalType": "uint256",
          "name": "_tokenId",
          "type": "uint256"
        }
      ],
      "name": "deleteNFT",
      "outputs": [],
      "stateMutability": "nonpayable",
      "type": "function"
    },
    {
      "inputs": [
        {
          "internalType": "address",
          "name": "to",
          "type": "address"
        },
        {
          "internalType": "uint256",
          "name": "_tokenId",
          "type": "uint256"
        }
      ],
      "name": "safeTransfer",
      "outputs": [],
      "stateMutability": "nonpayable",
      "type": "function"
    }
  ],
  "bytecode": "0x60806040523480156200001157600080fd5b506040518060400160405280600781526020017f4c616e644e4654000000000000000000000000000000000000000000000000008152506040518060400160405280600481526020017f4c4e465400000000000000000000000000000000000000000000000000000000815250816000908051906020019062000096929190620001f9565b508060019080519060200190620000af929190620001f9565b505050620000e4620000cf6200012b640100000000026401000000009004565b62000133640100000000026401000000009004565b33600760006101000a81548173ffffffffffffffffffffffffffffffffffffffff021916908373ffffffffffffffffffffffffffffffffffffffff1602179055506200030d565b600033905090565b6000600660009054906101000a900473ffffffffffffffffffffffffffffffffffffffff16905081600660006101000a81548173ffffffffffffffffffffffffffffffffffffffff021916908373ffffffffffffffffffffffffffffffffffffffff1602179055508173ffffffffffffffffffffffffffffffffffffffff168173ffffffffffffffffffffffffffffffffffffffff167f8be0079c531659141344cd1fd0a4f28419497f9722a3daafe3b4186f6b6457e060405160405180910390a35050565b8280546200020790620002d8565b90600052602060002090601f0160209004810192826200022b576000855562000277565b82601f106200024657805160ff191683800117855562000277565b8280016001018555821562000277579182015b828111156200027657825182559160200191906001019062000259565b5b5090506200028691906200028a565b5090565b5b80821115620002a55760008160009055506001016200028b565b5090565b7f4e487b7100000000000000000000000000000000000000000000000000000000600052602260045260246000fd5b60006002820490506001821680620002f157607f821691505b602082108103620003075762000306620002a9565b5b50919050565b6137bc806200031d6000396000f3fe608060405234801561001057600080fd5b506004361061015f576000357c010000000000000000000000000000000000000000000000000000000090048063715018a6116100d5578063b88d4fde11610099578063b88d4fde14610390578063c87b56dd146103ac578063d204c45e146103dc578063e985e9c5146103f8578063f2fde38b14610428578063f687ed57146104445761015f565b8063715018a6146102fe5780638da5cb5b1461030857806395d89b4114610326578063a0d5f1aa14610344578063a22cb465146103745761015f565b806323b872dd1161012757806323b872dd1461022e578063423f6cef1461024a57806342842e0e1461026657806342966c68146102825780636352211e1461029e57806370a08231146102ce5761015f565b806301ffc9a71461016457806306fdde031461019457806307f4d25c146101b2578063081812fc146101e2578063095ea7b314610212575b600080fd5b61017e60048036038101906101799190612524565b610460565b60405161018b919061256c565b60405180910390f35b61019c610542565b6040516101a99190612620565b60405180910390f35b6101cc60048036038101906101c79190612678565b6105d4565b6040516101d9919061278f565b60405180910390f35b6101fc60048036038101906101f79190612678565b6106f3565b60405161020991906127c0565b60405180910390f35b61022c60048036038101906102279190612807565b610739565b005b61024860048036038101906102439190612847565b610850565b005b610264600480360381019061025f9190612807565b6108b0565b005b610280600480360381019061027b9190612847565b610a3a565b005b61029c60048036038101906102979190612678565b610a5a565b005b6102b860048036038101906102b39190612678565b610ab6565b6040516102c591906127c0565b60405180910390f35b6102e860048036038101906102e3919061289a565b610b3c565b6040516102f591906128d6565b60405180910390f35b610306610bf3565b005b610310610c07565b60405161031d91906127c0565b60405180910390f35b61032e610c31565b60405161033b9190612620565b60405180910390f35b61035e6004803603810190610359919061289a565b610cc3565b60405161036b91906128d6565b60405180910390f35b61038e6004803603810190610389919061291d565b610d0c565b005b6103aa60048036038101906103a59190612a92565b610d22565b005b6103c660048036038101906103c19190612678565b610d84565b6040516103d39190612620565b60405180910390f35b6103f660048036038101906103f19190612bb6565b610dec565b005b610412600480360381019061040d9190612c12565b61100b565b60405161041f919061256c565b60405180910390f35b610442600480360381019061043d919061289a565b61109f565b005b61045e60048036038101906104599190612678565b611122565b005b60007f80ac58cd000000000000000000000000000000000000000000000000000000007bffffffffffffffffffffffffffffffffffffffffffffffffffffffff1916827bffffffffffffffffffffffffffffffffffffffffffffffffffffffff1916148061052b57507f5b5e139f000000000000000000000000000000000000000000000000000000007bffffffffffffffffffffffffffffffffffffffffffffffffffffffff1916827bffffffffffffffffffffffffffffffffffffffffffffffffffffffff1916145b8061053b575061053a8261120b565b5b9050919050565b60606000805461055190612c81565b80601f016020809104026020016040519081016040528092919081815260200182805461057d90612c81565b80156105ca5780601f1061059f576101008083540402835291602001916105ca565b820191906000526020600020905b8154815290600101906020018083116105ad57829003601f168201915b5050505050905090565b6105dc612351565b600c6000838152602001908152602001600020604051806060016040529081600082015481526020016001820160009054906101000a900473ffffffffffffffffffffffffffffffffffffffff1673ffffffffffffffffffffffffffffffffffffffff1673ffffffffffffffffffffffffffffffffffffffff16815260200160028201805461066a90612c81565b80601f016020809104026020016040519081016040528092919081815260200182805461069690612c81565b80156106e35780601f106106b8576101008083540402835291602001916106e3565b820191906000526020600020905b8154815290600101906020018083116106c657829003601f168201915b5050505050815250509050919050565b60006106fe82611275565b6004600083815260200190815260200160002060009054906101000a900473ffffffffffffffffffffffffffffffffffffffff169050919050565b600061074482610ab6565b90508073ffffffffffffffffffffffffffffffffffffffff168373ffffffffffffffffffffffffffffffffffffffff16036107b4576040517f08c379a00000000000000000000000000000000000000000000000000000000081526004016107ab90612d24565b60405180910390fd5b8073ffffffffffffffffffffffffffffffffffffffff166107d36112c0565b73ffffffffffffffffffffffffffffffffffffffff1614806108025750610801816107fc6112c0565b61100b565b5b610841576040517f08c379a000000000000000000000000000000000000000000000000000000000815260040161083890612db6565b60405180910390fd5b61084b83836112c8565b505050565b61086161085b6112c0565b82611381565b6108a0576040517f08c379a000000000000000000000000000000000000000000000000000000000815260040161089790612e48565b60405180910390fd5b6108ab838383611416565b505050565b803373ffffffffffffffffffffffffffffffffffffffff166108d182610ab6565b73ffffffffffffffffffffffffffffffffffffffff1614610927576040517f08c379a000000000000000000000000000000000000000000000000000000000815260040161091e90612eda565b60405180910390fd5b610932338484610a3a565b82600c600084815260200190815260200160002060010160006101000a81548173ffffffffffffffffffffffffffffffffffffffff021916908373ffffffffffffffffffffffffffffffffffffffff1602179055506001600b60008573ffffffffffffffffffffffffffffffffffffffff1673ffffffffffffffffffffffffffffffffffffffff16815260200190815260200160002060008282546109d79190612f29565b925050819055506001600b60003373ffffffffffffffffffffffffffffffffffffffff1673ffffffffffffffffffffffffffffffffffffffff1681526020019081526020016000206000828254610a2e9190612f7f565b92505081905550505050565b610a5583838360405180602001604052806000815250610d22565b505050565b610a6b610a656112c0565b82611381565b610aaa576040517f08c379a0000000000000000000000000000000000000000000000000000000008152600401610aa190612e48565b60405180910390fd5b610ab38161170f565b50565b600080610ac28361171b565b9050600073ffffffffffffffffffffffffffffffffffffffff168173ffffffffffffffffffffffffffffffffffffffff1603610b33576040517f08c379a0000000000000000000000000000000000000000000000000000000008152600401610b2a90612fff565b60405180910390fd5b80915050919050565b60008073ffffffffffffffffffffffffffffffffffffffff168273ffffffffffffffffffffffffffffffffffffffff1603610bac576040517f08c379a0000000000000000000000000000000000000000000000000000000008152600401610ba390613091565b60405180910390fd5b600360008373ffffffffffffffffffffffffffffffffffffffff1673ffffffffffffffffffffffffffffffffffffffff168152602001908152602001600020549050919050565b610bfb611758565b610c0560006117d6565b565b6000600660009054906101000a900473ffffffffffffffffffffffffffffffffffffffff16905090565b606060018054610c4090612c81565b80601f0160208091040260200160405190810160405280929190818152602001828054610c6c90612c81565b8015610cb95780601f10610c8e57610100808354040283529160200191610cb9565b820191906000526020600020905b815481529060010190602001808311610c9c57829003601f168201915b5050505050905090565b6000600b60008373ffffffffffffffffffffffffffffffffffffffff1673ffffffffffffffffffffffffffffffffffffffff168152602001908152602001600020549050919050565b610d1e610d176112c0565b838361189c565b5050565b610d33610d2d6112c0565b83611381565b610d72576040517f08c379a0000000000000000000000000000000000000000000000000000000008152600401610d6990612e48565b60405180910390fd5b610d7e84848484611a08565b50505050565b6060610d8f82611275565b6000610d99611a64565b90506000815111610db95760405180602001604052806000815250610de4565b80610dc384611a7b565b604051602001610dd49291906130ed565b6040516020818303038152906040525b915050919050565b600760009054906101000a900473ffffffffffffffffffffffffffffffffffffffff1673ffffffffffffffffffffffffffffffffffffffff163373ffffffffffffffffffffffffffffffffffffffff1614610e7c576040517f08c379a0000000000000000000000000000000000000000000000000000000008152600401610e7390613183565b60405180910390fd5b6000610e88600d611bfa565b9050610e94600d611c08565b610e9e8382611c1e565b8060086000018190555082600860010160006101000a81548173ffffffffffffffffffffffffffffffffffffffff021916908373ffffffffffffffffffffffffffffffffffffffff1602179055508160086002019080519060200190610f05929190612388565b506008600c6000838152602001908152602001600020600082015481600001556001820160009054906101000a900473ffffffffffffffffffffffffffffffffffffffff168160010160006101000a81548173ffffffffffffffffffffffffffffffffffffffff021916908373ffffffffffffffffffffffffffffffffffffffff1602179055506002820181600201908054610fa090612c81565b610fab92919061240e565b509050506001600b60008573ffffffffffffffffffffffffffffffffffffffff1673ffffffffffffffffffffffffffffffffffffffff1681526020019081526020016000206000828254610fff9190612f29565b92505081905550505050565b6000600560008473ffffffffffffffffffffffffffffffffffffffff1673ffffffffffffffffffffffffffffffffffffffff16815260200190815260200160002060008373ffffffffffffffffffffffffffffffffffffffff1673ffffffffffffffffffffffffffffffffffffffff16815260200190815260200160002060009054906101000a900460ff16905092915050565b6110a7611758565b600073ffffffffffffffffffffffffffffffffffffffff168173ffffffffffffffffffffffffffffffffffffffff1603611116576040517f08c379a000000000000000000000000000000000000000000000000000000000815260040161110d90613215565b60405180910390fd5b61111f816117d6565b50565b803373ffffffffffffffffffffffffffffffffffffffff1661114382610ab6565b73ffffffffffffffffffffffffffffffffffffffff1614611199576040517f08c379a000000000000000000000000000000000000000000000000000000000815260040161119090612eda565b60405180910390fd5b60006111a483610ab6565b90506001600b60008373ffffffffffffffffffffffffffffffffffffffff1673ffffffffffffffffffffffffffffffffffffffff16815260200190815260200160002060008282546111f69190612f7f565b925050819055506112068361170f565b505050565b60007f01ffc9a7000000000000000000000000000000000000000000000000000000007bffffffffffffffffffffffffffffffffffffffffffffffffffffffff1916827bffffffffffffffffffffffffffffffffffffffffffffffffffffffff1916149050919050565b61127e81611c3c565b6112bd576040517f08c379a00000000000000000000000000000000000000000000000000000000081526004016112b490612fff565b60405180910390fd5b50565b600033905090565b816004600083815260200190815260200160002060006101000a81548173ffffffffffffffffffffffffffffffffffffffff021916908373ffffffffffffffffffffffffffffffffffffffff160217905550808273ffffffffffffffffffffffffffffffffffffffff1661133b83610ab6565b73ffffffffffffffffffffffffffffffffffffffff167f8c5be1e5ebec7d5bd14f71427d1e84f3dd0314c0f7b2291e5b200ac8c7c3b92560405160405180910390a45050565b60008061138d83610ab6565b90508073ffffffffffffffffffffffffffffffffffffffff168473ffffffffffffffffffffffffffffffffffffffff1614806113cf57506113ce818561100b565b5b8061140d57508373ffffffffffffffffffffffffffffffffffffffff166113f5846106f3565b73ffffffffffffffffffffffffffffffffffffffff16145b91505092915050565b8273ffffffffffffffffffffffffffffffffffffffff1661143682610ab6565b73ffffffffffffffffffffffffffffffffffffffff161461148c576040517f08c379a0000000000000000000000000000000000000000000000000000000008152600401611483906132a7565b60405180910390fd5b600073ffffffffffffffffffffffffffffffffffffffff168273ffffffffffffffffffffffffffffffffffffffff16036114fb576040517f08c379a00000000000000000000000000000000000000000000000000000000081526004016114f290613339565b60405180910390fd5b6115088383836001611c7d565b8273ffffffffffffffffffffffffffffffffffffffff1661152882610ab6565b73ffffffffffffffffffffffffffffffffffffffff161461157e576040517f08c379a0000000000000000000000000000000000000000000000000000000008152600401611575906132a7565b60405180910390fd5b6004600082815260200190815260200160002060006101000a81549073ffffffffffffffffffffffffffffffffffffffff02191690556001600360008573ffffffffffffffffffffffffffffffffffffffff1673ffffffffffffffffffffffffffffffffffffffff168152602001908152602001600020600082825403925050819055506001600360008473ffffffffffffffffffffffffffffffffffffffff1673ffffffffffffffffffffffffffffffffffffffff16815260200190815260200160002060008282540192505081905550816002600083815260200190815260200160002060006101000a81548173ffffffffffffffffffffffffffffffffffffffff021916908373ffffffffffffffffffffffffffffffffffffffff160217905550808273ffffffffffffffffffffffffffffffffffffffff168473ffffffffffffffffffffffffffffffffffffffff167fddf252ad1be2c89b69c2b068fc378daa952ba7f163c4a11628f55a4df523b3ef60405160405180910390a461170a8383836001611da3565b505050565b61171881611da9565b50565b60006002600083815260200190815260200160002060009054906101000a900473ffffffffffffffffffffffffffffffffffffffff169050919050565b6117606112c0565b73ffffffffffffffffffffffffffffffffffffffff1661177e610c07565b73ffffffffffffffffffffffffffffffffffffffff16146117d4576040517f08c379a00000000000000000000000000000000000000000000000000000000081526004016117cb906133a5565b60405180910390fd5b565b6000600660009054906101000a900473ffffffffffffffffffffffffffffffffffffffff16905081600660006101000a81548173ffffffffffffffffffffffffffffffffffffffff021916908373ffffffffffffffffffffffffffffffffffffffff1602179055508173ffffffffffffffffffffffffffffffffffffffff168173ffffffffffffffffffffffffffffffffffffffff167f8be0079c531659141344cd1fd0a4f28419497f9722a3daafe3b4186f6b6457e060405160405180910390a35050565b8173ffffffffffffffffffffffffffffffffffffffff168373ffffffffffffffffffffffffffffffffffffffff160361190a576040517f08c379a000000000000000000000000000000000000000000000000000000000815260040161190190613411565b60405180910390fd5b80600560008573ffffffffffffffffffffffffffffffffffffffff1673ffffffffffffffffffffffffffffffffffffffff16815260200190815260200160002060008473ffffffffffffffffffffffffffffffffffffffff1673ffffffffffffffffffffffffffffffffffffffff16815260200190815260200160002060006101000a81548160ff0219169083151502179055508173ffffffffffffffffffffffffffffffffffffffff168373ffffffffffffffffffffffffffffffffffffffff167f17307eab39ab6107e8899845ad3d59bd9653f200f220920489ca2b5937696c31836040516119fb919061256c565b60405180910390a3505050565b611a13848484611416565b611a1f84848484611ef7565b611a5e576040517f08c379a0000000000000000000000000000000000000000000000000000000008152600401611a55906134a3565b60405180910390fd5b50505050565b606060405180602001604052806000815250905090565b606060008203611ac2576040518060400160405280600181526020017f30000000000000000000000000000000000000000000000000000000000000008152509050611bf5565b600082905060005b60008214611af4578080611add906134c3565b915050600a82611aed919061353a565b9150611aca565b60008167ffffffffffffffff811115611b1057611b0f612967565b5b6040519080825280601f01601f191660200182016040528015611b425781602001600182028036833780820191505090505b5090505b60008514611bee57600182611b5b9190612f7f565b9150600a85611b6a919061356b565b6030611b769190612f29565b7f010000000000000000000000000000000000000000000000000000000000000002818381518110611bab57611baa61359c565b5b60200101907effffffffffffffffffffffffffffffffffffffffffffffffffffffffffffff1916908160001a905350600a85611be7919061353a565b9450611b46565b8093505050505b919050565b600081600001549050919050565b6001816000016000828254019250508190555050565b611c388282604051806020016040528060008152506120b6565b5050565b60008073ffffffffffffffffffffffffffffffffffffffff16611c5e8361171b565b73ffffffffffffffffffffffffffffffffffffffff1614159050919050565b6001811115611d9d57600073ffffffffffffffffffffffffffffffffffffffff168473ffffffffffffffffffffffffffffffffffffffff1614611d115780600360008673ffffffffffffffffffffffffffffffffffffffff1673ffffffffffffffffffffffffffffffffffffffff1681526020019081526020016000206000828254611d099190612f7f565b925050819055505b600073ffffffffffffffffffffffffffffffffffffffff168373ffffffffffffffffffffffffffffffffffffffff1614611d9c5780600360008573ffffffffffffffffffffffffffffffffffffffff1673ffffffffffffffffffffffffffffffffffffffff1681526020019081526020016000206000828254611d949190612f29565b925050819055505b5b50505050565b50505050565b6000611db482610ab6565b9050611dc4816000846001611c7d565b611dcd82610ab6565b90506004600083815260200190815260200160002060006101000a81549073ffffffffffffffffffffffffffffffffffffffff02191690556001600360008373ffffffffffffffffffffffffffffffffffffffff1673ffffffffffffffffffffffffffffffffffffffff168152602001908152602001600020600082825403925050819055506002600083815260200190815260200160002060006101000a81549073ffffffffffffffffffffffffffffffffffffffff021916905581600073ffffffffffffffffffffffffffffffffffffffff168273ffffffffffffffffffffffffffffffffffffffff167fddf252ad1be2c89b69c2b068fc378daa952ba7f163c4a11628f55a4df523b3ef60405160405180910390a4611ef3816000846001611da3565b5050565b6000611f188473ffffffffffffffffffffffffffffffffffffffff16612111565b156120a9578373ffffffffffffffffffffffffffffffffffffffff1663150b7a02611f416112c0565b8786866040518563ffffffff167c0100000000000000000000000000000000000000000000000000000000028152600401611f7f9493929190613620565b6020604051808303816000875af1925050508015611fbb57506040513d601f19601f82011682018060405250810190611fb89190613681565b60015b61203d573d8060008114611feb576040519150601f19603f3d011682016040523d82523d6000602084013e611ff0565b606091505b506000815103612035576040517f08c379a000000000000000000000000000000000000000000000000000000000815260040161202c906134a3565b60405180910390fd5b805181602001fd5b63150b7a027c0100000000000000000000000000000000000000000000000000000000027bffffffffffffffffffffffffffffffffffffffffffffffffffffffff1916817bffffffffffffffffffffffffffffffffffffffffffffffffffffffff1916149150506120ae565b600190505b949350505050565b6120c08383612134565b6120cd6000848484611ef7565b61210c576040517f08c379a0000000000000000000000000000000000000000000000000000000008152600401612103906134a3565b60405180910390fd5b505050565b6000808273ffffffffffffffffffffffffffffffffffffffff163b119050919050565b600073ffffffffffffffffffffffffffffffffffffffff168273ffffffffffffffffffffffffffffffffffffffff16036121a3576040517f08c379a000000000000000000000000000000000000000000000000000000000815260040161219a906136fa565b60405180910390fd5b6121ac81611c3c565b156121ec576040517f08c379a00000000000000000000000000000000000000000000000000000000081526004016121e390613766565b60405180910390fd5b6121fa600083836001611c7d565b61220381611c3c565b15612243576040517f08c379a000000000000000000000000000000000000000000000000000000000815260040161223a90613766565b60405180910390fd5b6001600360008473ffffffffffffffffffffffffffffffffffffffff1673ffffffffffffffffffffffffffffffffffffffff16815260200190815260200160002060008282540192505081905550816002600083815260200190815260200160002060006101000a81548173ffffffffffffffffffffffffffffffffffffffff021916908373ffffffffffffffffffffffffffffffffffffffff160217905550808273ffffffffffffffffffffffffffffffffffffffff16600073ffffffffffffffffffffffffffffffffffffffff167fddf252ad1be2c89b69c2b068fc378daa952ba7f163c4a11628f55a4df523b3ef60405160405180910390a461234d600083836001611da3565b5050565b604051806060016040528060008152602001600073ffffffffffffffffffffffffffffffffffffffff168152602001606081525090565b82805461239490612c81565b90600052602060002090601f0160209004810192826123b657600085556123fd565b82601f106123cf57805160ff19168380011785556123fd565b828001600101855582156123fd579182015b828111156123fc5782518255916020019190600101906123e1565b5b50905061240a919061249b565b5090565b82805461241a90612c81565b90600052602060002090601f01602090048101928261243c576000855561248a565b82601f1061244d578054855561248a565b8280016001018555821561248a57600052602060002091601f016020900482015b8281111561248957825482559160010191906001019061246e565b5b509050612497919061249b565b5090565b5b808211156124b457600081600090555060010161249c565b5090565b6000604051905090565b600080fd5b600080fd5b60007fffffffff0000000000000000000000000000000000000000000000000000000082169050919050565b612501816124cc565b811461250c57600080fd5b50565b60008135905061251e816124f8565b92915050565b60006020828403121561253a576125396124c2565b5b60006125488482850161250f565b91505092915050565b60008115159050919050565b61256681612551565b82525050565b6000602082019050612581600083018461255d565b92915050565b600081519050919050565b600082825260208201905092915050565b60005b838110156125c15780820151818401526020810190506125a6565b838111156125d0576000848401525b50505050565b6000601f19601f8301169050919050565b60006125f282612587565b6125fc8185612592565b935061260c8185602086016125a3565b612615816125d6565b840191505092915050565b6000602082019050818103600083015261263a81846125e7565b905092915050565b6000819050919050565b61265581612642565b811461266057600080fd5b50565b6000813590506126728161264c565b92915050565b60006020828403121561268e5761268d6124c2565b5b600061269c84828501612663565b91505092915050565b6126ae81612642565b82525050565b600073ffffffffffffffffffffffffffffffffffffffff82169050919050565b60006126df826126b4565b9050919050565b6126ef816126d4565b82525050565b600082825260208201905092915050565b600061271182612587565b61271b81856126f5565b935061272b8185602086016125a3565b612734816125d6565b840191505092915050565b600060608301600083015161275760008601826126a5565b50602083015161276a60208601826126e6565b50604083015184820360408601526127828282612706565b9150508091505092915050565b600060208201905081810360008301526127a9818461273f565b905092915050565b6127ba816126d4565b82525050565b60006020820190506127d560008301846127b1565b92915050565b6127e4816126d4565b81146127ef57600080fd5b50565b600081359050612801816127db565b92915050565b6000806040838503121561281e5761281d6124c2565b5b600061282c858286016127f2565b925050602061283d85828601612663565b9150509250929050565b6000806000606084860312156128605761285f6124c2565b5b600061286e868287016127f2565b935050602061287f868287016127f2565b925050604061289086828701612663565b9150509250925092565b6000602082840312156128b0576128af6124c2565b5b60006128be848285016127f2565b91505092915050565b6128d081612642565b82525050565b60006020820190506128eb60008301846128c7565b92915050565b6128fa81612551565b811461290557600080fd5b50565b600081359050612917816128f1565b92915050565b60008060408385031215612934576129336124c2565b5b6000612942858286016127f2565b925050602061295385828601612908565b9150509250929050565b600080fd5b600080fd5b7f4e487b7100000000000000000000000000000000000000000000000000000000600052604160045260246000fd5b61299f826125d6565b810181811067ffffffffffffffff821117156129be576129bd612967565b5b80604052505050565b60006129d16124b8565b90506129dd8282612996565b919050565b600067ffffffffffffffff8211156129fd576129fc612967565b5b612a06826125d6565b9050602081019050919050565b82818337600083830152505050565b6000612a35612a30846129e2565b6129c7565b905082815260208101848484011115612a5157612a50612962565b5b612a5c848285612a13565b509392505050565b600082601f830112612a7957612a7861295d565b5b8135612a89848260208601612a22565b91505092915050565b60008060008060808587031215612aac57612aab6124c2565b5b6000612aba878288016127f2565b9450506020612acb878288016127f2565b9350506040612adc87828801612663565b925050606085013567ffffffffffffffff811115612afd57612afc6124c7565b5b612b0987828801612a64565b91505092959194509250565b600067ffffffffffffffff821115612b3057612b2f612967565b5b612b39826125d6565b9050602081019050919050565b6000612b59612b5484612b15565b6129c7565b905082815260208101848484011115612b7557612b74612962565b5b612b80848285612a13565b509392505050565b600082601f830112612b9d57612b9c61295d565b5b8135612bad848260208601612b46565b91505092915050565b60008060408385031215612bcd57612bcc6124c2565b5b6000612bdb858286016127f2565b925050602083013567ffffffffffffffff811115612bfc57612bfb6124c7565b5b612c0885828601612b88565b9150509250929050565b60008060408385031215612c2957612c286124c2565b5b6000612c37858286016127f2565b9250506020612c48858286016127f2565b9150509250929050565b7f4e487b7100000000000000000000000000000000000000000000000000000000600052602260045260246000fd5b60006002820490506001821680612c9957607f821691505b602082108103612cac57612cab612c52565b5b50919050565b7f4552433732313a20617070726f76616c20746f2063757272656e74206f776e6560008201527f7200000000000000000000000000000000000000000000000000000000000000602082015250565b6000612d0e602183612592565b9150612d1982612cb2565b604082019050919050565b60006020820190508181036000830152612d3d81612d01565b9050919050565b7f4552433732313a20617070726f76652063616c6c6572206973206e6f7420746f60008201527f6b656e206f776e6572206f7220617070726f76656420666f7220616c6c000000602082015250565b6000612da0603d83612592565b9150612dab82612d44565b604082019050919050565b60006020820190508181036000830152612dcf81612d93565b9050919050565b7f4552433732313a2063616c6c6572206973206e6f7420746f6b656e206f776e6560008201527f72206f7220617070726f76656400000000000000000000000000000000000000602082015250565b6000612e32602d83612592565b9150612e3d82612dd6565b604082019050919050565b60006020820190508181036000830152612e6181612e25565b9050919050565b7f4572726f72203a20756e617574686f72697a6564206163636f756e742061646460008201527f726573732e000000000000000000000000000000000000000000000000000000602082015250565b6000612ec4602583612592565b9150612ecf82612e68565b604082019050919050565b60006020820190508181036000830152612ef381612eb7565b9050919050565b7f4e487b7100000000000000000000000000000000000000000000000000000000600052601160045260246000fd5b6000612f3482612642565b9150612f3f83612642565b9250827fffffffffffffffffffffffffffffffffffffffffffffffffffffffffffffffff03821115612f7457612f73612efa565b5b828201905092915050565b6000612f8a82612642565b9150612f9583612642565b925082821015612fa857612fa7612efa565b5b828203905092915050565b7f4552433732313a20696e76616c696420746f6b656e2049440000000000000000600082015250565b6000612fe9601883612592565b9150612ff482612fb3565b602082019050919050565b6000602082019050818103600083015261301881612fdc565b9050919050565b7f4552433732313a2061646472657373207a65726f206973206e6f74206120766160008201527f6c6964206f776e65720000000000000000000000000000000000000000000000602082015250565b600061307b602983612592565b91506130868261301f565b604082019050919050565b600060208201905081810360008301526130aa8161306e565b9050919050565b600081905092915050565b60006130c782612587565b6130d181856130b1565b93506130e18185602086016125a3565b80840191505092915050565b60006130f982856130bc565b915061310582846130bc565b91508190509392505050565b7f4572726f72203a20756e617574686f72697a65642061646d696e206163636f7560008201527f6e7420616464726573732e000000000000000000000000000000000000000000602082015250565b600061316d602b83612592565b915061317882613111565b604082019050919050565b6000602082019050818103600083015261319c81613160565b9050919050565b7f4f776e61626c653a206e6577206f776e657220697320746865207a65726f206160008201527f6464726573730000000000000000000000000000000000000000000000000000602082015250565b60006131ff602683612592565b915061320a826131a3565b604082019050919050565b6000602082019050818103600083015261322e816131f2565b9050919050565b7f4552433732313a207472616e736665722066726f6d20696e636f72726563742060008201527f6f776e6572000000000000000000000000000000000000000000000000000000602082015250565b6000613291602583612592565b915061329c82613235565b604082019050919050565b600060208201905081810360008301526132c081613284565b9050919050565b7f4552433732313a207472616e7366657220746f20746865207a65726f2061646460008201527f7265737300000000000000000000000000000000000000000000000000000000602082015250565b6000613323602483612592565b915061332e826132c7565b604082019050919050565b6000602082019050818103600083015261335281613316565b9050919050565b7f4f776e61626c653a2063616c6c6572206973206e6f7420746865206f776e6572600082015250565b600061338f602083612592565b915061339a82613359565b602082019050919050565b600060208201905081810360008301526133be81613382565b9050919050565b7f4552433732313a20617070726f766520746f2063616c6c657200000000000000600082015250565b60006133fb601983612592565b9150613406826133c5565b602082019050919050565b6000602082019050818103600083015261342a816133ee565b9050919050565b7f4552433732313a207472616e7366657220746f206e6f6e20455243373231526560008201527f63656976657220696d706c656d656e7465720000000000000000000000000000602082015250565b600061348d603283612592565b915061349882613431565b604082019050919050565b600060208201905081810360008301526134bc81613480565b9050919050565b60006134ce82612642565b91507fffffffffffffffffffffffffffffffffffffffffffffffffffffffffffffffff8203613500576134ff612efa565b5b600182019050919050565b7f4e487b7100000000000000000000000000000000000000000000000000000000600052601260045260246000fd5b600061354582612642565b915061355083612642565b9250826135605761355f61350b565b5b828204905092915050565b600061357682612642565b915061358183612642565b9250826135915761359061350b565b5b828206905092915050565b7f4e487b7100000000000000000000000000000000000000000000000000000000600052603260045260246000fd5b600081519050919050565b600082825260208201905092915050565b60006135f2826135cb565b6135fc81856135d6565b935061360c8185602086016125a3565b613615816125d6565b840191505092915050565b600060808201905061363560008301876127b1565b61364260208301866127b1565b61364f60408301856128c7565b818103606083015261366181846135e7565b905095945050505050565b60008151905061367b816124f8565b92915050565b600060208284031215613697576136966124c2565b5b60006136a58482850161366c565b91505092915050565b7f4552433732313a206d696e7420746f20746865207a65726f2061646472657373600082015250565b60006136e4602083612592565b91506136ef826136ae565b602082019050919050565b60006020820190508181036000830152613713816136d7565b9050919050565b7f4552433732313a20746f6b656e20616c7265616479206d696e74656400000000600082015250565b6000613750601c83612592565b915061375b8261371a565b602082019050919050565b6000602082019050818103600083015261377f81613743565b905091905056fea2646970667358221220fe884c7e4b7373886b26e23fcaeceaa7d49dad7d61d8f5482b16a348b09cb62e64736f6c634300080e0033",
  "immutableReferences": {},
  "source": "// SPDX-License-Identifier: MIT\npragma solidity >=0.4.22 <0.9.0;\n\nimport \"./ERC721.sol\";\nimport \"./ERC721Burnable.sol\";\nimport \"./Ownable.sol\";\nimport \"./Counters.sol\";\n\ncontract LandNFT is ERC721, ERC721Burnable, Ownable {\n    using Counters for Counters.Counter;\n    address private admin;\n\n    struct landNFT {\n        uint256 id;\n        address owner;\n        string mongoId;\n    }\n    landNFT landnft;\n\n    mapping(address => uint256) private ownership;\n    mapping(uint256 => landNFT) private propDetails;\n\n    Counters.Counter private _tokenIdCounter;\n\n    constructor() ERC721(\"LandNFT\", \"LNFT\") {\n        admin = msg.sender;\n    }\n\n    modifier tokenOwner(uint256 _tokenId) {\n        require(ownerOf(_tokenId) == msg.sender, \"Error : unauthorized account address.\");\n        _;\n    }\n\n    modifier onlyAdmin () {\n        require(msg.sender == admin, \"Error : unauthorized admin account address.\");\n        _;\n    }\n\n    //create new NFT for selected land at buyers address directly only by admin account\n    function safeMint(address to, string memory _id) external onlyAdmin {\n        uint256 tokenId = _tokenIdCounter.current();\n        _tokenIdCounter.increment();\n        _safeMint(to, tokenId);\n        landnft.id = tokenId;\n        landnft.owner = to;\n        landnft.mongoId = _id;\n        propDetails[tokenId] = landnft;\n        ownership[to] += 1;\n    }\n\n    //get details of land with token _id\n    function landDetails (uint256 _id) external view returns (landNFT memory) {\n        return propDetails[_id];\n    }\n\n    //get balance details of user\n    function balOf (address _addr) external view returns (uint256) {\n        return ownership[_addr];\n    }\n\n    // The following functions are overrides required by Solidity.\n    function _burn(uint256 _tokenId) internal override (ERC721) {\n        super._burn(_tokenId);\n    }\n\n    //burn land nft\n    function deleteNFT (uint256 _tokenId) external tokenOwner(_tokenId) {\n        address owner = ownerOf(_tokenId);\n        ownership[owner] -= 1;\n        _burn(_tokenId);\n    }\n\n    //transfer ownership of land NFT\n    function safeTransfer (address to, uint256 _tokenId) external tokenOwner(_tokenId){\n        safeTransferFrom(msg.sender, to, _tokenId);\n        propDetails[_tokenId].owner = to;\n        ownership[to] += 1;\n        ownership[msg.sender] -= 1;\n    }\n}",
  "sourcePath": "/home/vikaskaushik/Desktop/cryptogold/land-contract/contracts/landNFT.sol",
  "compiler": {
    "name": "solc",
    "version": "0.8.14+commit.80d49f37.Emscripten.clang"
  },
  "schemaVersion": "3.4.7",
  "updatedAt": "2023-07-05T16:38:23.171Z",
  "networkType": "ethereum",
  "devdoc": {
    "kind": "dev",
    "methods": {
      "approve(address,uint256)": {
        "details": "See {IERC721-approve}."
      },
      "balanceOf(address)": {
        "details": "See {IERC721-balanceOf}."
      },
      "burn(uint256)": {
        "details": "Burns `tokenId`. See {ERC721-_burn}. Requirements: - The caller must own `tokenId` or be an approved operator."
      },
      "getApproved(uint256)": {
        "details": "See {IERC721-getApproved}."
      },
      "isApprovedForAll(address,address)": {
        "details": "See {IERC721-isApprovedForAll}."
      },
      "name()": {
        "details": "See {IERC721Metadata-name}."
      },
      "owner()": {
        "details": "Returns the address of the current owner."
      },
      "ownerOf(uint256)": {
        "details": "See {IERC721-ownerOf}."
      },
      "renounceOwnership()": {
        "details": "Leaves the contract without owner. It will not be possible to call `onlyOwner` functions anymore. Can only be called by the current owner. NOTE: Renouncing ownership will leave the contract without an owner, thereby removing any functionality that is only available to the owner."
      },
      "safeTransferFrom(address,address,uint256)": {
        "details": "See {IERC721-safeTransferFrom}."
      },
      "safeTransferFrom(address,address,uint256,bytes)": {
        "details": "See {IERC721-safeTransferFrom}."
      },
      "setApprovalForAll(address,bool)": {
        "details": "See {IERC721-setApprovalForAll}."
      },
      "supportsInterface(bytes4)": {
        "details": "See {IERC165-supportsInterface}."
      },
      "symbol()": {
        "details": "See {IERC721Metadata-symbol}."
      },
      "tokenURI(uint256)": {
        "details": "See {IERC721Metadata-tokenURI}."
      },
      "transferFrom(address,address,uint256)": {
        "details": "See {IERC721-transferFrom}."
      },
      "transferOwnership(address)": {
        "details": "Transfers ownership of the contract to a new account (`newOwner`). Can only be called by the current owner."
      }
    },
    "version": 1
  },
  "userdoc": {
    "kind": "user",
    "methods": {},
    "version": 1
  }
}